{
  "_format": "hh-sol-artifact-1",
  "contractName": "SimpleAuction",
  "sourceName": "contracts/SimpleAuction.sol",
  "abi": [
    {
      "inputs": [
        {
          "internalType": "address payable",
          "name": "beneficiaryAddress",
          "type": "address"
        }
      ],
      "stateMutability": "nonpayable",
      "type": "constructor"
    },
    {
      "inputs": [],
      "name": "AuctionAlreadyEnded",
      "type": "error"
    },
    {
      "inputs": [],
      "name": "AuctionEndAlreadyCalled",
      "type": "error"
    },
    {
      "inputs": [],
      "name": "AuctionNotYetEnded",
      "type": "error"
    },
    {
      "inputs": [
        {
          "internalType": "uint256",
          "name": "amount",
          "type": "uint256"
        }
      ],
      "name": "BidNotHighEnough",
      "type": "error"
    },
    {
      "anonymous": false,
      "inputs": [
        {
          "indexed": false,
          "internalType": "address",
          "name": "winner",
          "type": "address"
        },
        {
          "indexed": false,
          "internalType": "uint256",
          "name": "amount",
          "type": "uint256"
        }
      ],
      "name": "AuctionEnded",
      "type": "event"
    },
    {
      "anonymous": false,
      "inputs": [
        {
          "indexed": false,
          "internalType": "uint256",
          "name": "date",
          "type": "uint256"
        }
      ],
      "name": "AuctionTimeSet",
      "type": "event"
    },
    {
      "anonymous": false,
      "inputs": [
        {
          "indexed": false,
          "internalType": "address",
          "name": "bidder",
          "type": "address"
        },
        {
          "indexed": false,
          "internalType": "uint256",
          "name": "amount",
          "type": "uint256"
        }
      ],
      "name": "HighestBidIncreased",
      "type": "event"
    },
    {
      "inputs": [],
      "name": "auctionEnd",
      "outputs": [],
      "stateMutability": "nonpayable",
      "type": "function"
    },
    {
      "inputs": [],
      "name": "auctionEndTime",
      "outputs": [
        {
          "internalType": "uint256",
          "name": "",
          "type": "uint256"
        }
      ],
      "stateMutability": "view",
      "type": "function"
    },
    {
      "inputs": [
        {
          "internalType": "bytes32",
          "name": "name",
          "type": "bytes32"
        }
      ],
      "name": "bid",
      "outputs": [],
      "stateMutability": "payable",
      "type": "function"
    },
    {
      "inputs": [
        {
          "internalType": "address",
          "name": "",
          "type": "address"
        }
      ],
      "name": "bidders",
      "outputs": [
        {
          "internalType": "uint256",
          "name": "amount",
          "type": "uint256"
        },
        {
          "internalType": "address",
          "name": "bidder",
          "type": "address"
        },
        {
          "internalType": "bytes32",
          "name": "name",
          "type": "bytes32"
        }
      ],
      "stateMutability": "view",
      "type": "function"
    },
    {
      "inputs": [
        {
          "internalType": "uint256",
          "name": "",
          "type": "uint256"
        }
      ],
      "name": "bids",
      "outputs": [
        {
          "internalType": "uint256",
          "name": "amount",
          "type": "uint256"
        },
        {
          "internalType": "address",
          "name": "bidder",
          "type": "address"
        },
        {
          "internalType": "bytes32",
          "name": "name",
          "type": "bytes32"
        }
      ],
      "stateMutability": "view",
      "type": "function"
    },
    {
      "inputs": [
        {
          "internalType": "address",
          "name": "bidder",
          "type": "address"
        }
      ],
      "name": "getBid",
      "outputs": [
        {
          "components": [
            {
              "internalType": "uint256",
              "name": "amount",
              "type": "uint256"
            },
            {
              "internalType": "address",
              "name": "bidder",
              "type": "address"
            },
            {
              "internalType": "bytes32",
              "name": "name",
              "type": "bytes32"
            }
          ],
          "internalType": "struct SimpleAuction.BidObj",
          "name": "",
          "type": "tuple"
        }
      ],
      "stateMutability": "view",
      "type": "function"
    },
    {
      "inputs": [],
      "name": "getBids",
      "outputs": [
        {
          "components": [
            {
              "internalType": "uint256",
              "name": "amount",
              "type": "uint256"
            },
            {
              "internalType": "address",
              "name": "bidder",
              "type": "address"
            },
            {
              "internalType": "bytes32",
              "name": "name",
              "type": "bytes32"
            }
          ],
          "internalType": "struct SimpleAuction.BidObj[]",
          "name": "",
          "type": "tuple[]"
        }
      ],
      "stateMutability": "view",
      "type": "function"
    },
    {
      "inputs": [],
      "name": "getExpiryDate",
      "outputs": [
        {
          "internalType": "uint256",
          "name": "",
          "type": "uint256"
        }
      ],
      "stateMutability": "view",
      "type": "function"
    },
    {
      "inputs": [],
      "name": "getOwner",
      "outputs": [
        {
          "internalType": "address",
          "name": "",
          "type": "address"
        }
      ],
      "stateMutability": "view",
      "type": "function"
    },
    {
      "inputs": [],
      "name": "highestBid",
      "outputs": [
        {
          "internalType": "uint256",
          "name": "",
          "type": "uint256"
        }
      ],
      "stateMutability": "view",
      "type": "function"
    },
    {
      "inputs": [],
      "name": "highestBidder",
      "outputs": [
        {
          "internalType": "address",
          "name": "",
          "type": "address"
        }
      ],
      "stateMutability": "view",
      "type": "function"
    },
    {
      "inputs": [
        {
          "internalType": "uint256",
          "name": "biddingTime",
          "type": "uint256"
        }
      ],
      "name": "init",
      "outputs": [],
      "stateMutability": "nonpayable",
      "type": "function"
    },
    {
      "inputs": [],
      "name": "withdraw",
      "outputs": [
        {
          "internalType": "bool",
          "name": "",
          "type": "bool"
        }
      ],
      "stateMutability": "nonpayable",
      "type": "function"
    }
  ],
  "bytecode": "0x608060405234801561001057600080fd5b5060405162001162380380620011628339818101604052810190610034919061008f565b806000806101000a81548173ffffffffffffffffffffffffffffffffffffffff021916908373ffffffffffffffffffffffffffffffffffffffff16021790555050610101565b600081519050610089816100ea565b92915050565b6000602082840312156100a157600080fd5b60006100af8482850161007a565b91505092915050565b60006100c3826100ca565b9050919050565b600073ffffffffffffffffffffffffffffffffffffffff82169050919050565b6100f3816100b8565b81146100fe57600080fd5b50565b61105180620001116000396000f3fe6080604052600436106100c25760003560e01c806391f901571161007f578063b81c78ec11610059578063b81c78ec14610239578063c8b342ab14610264578063d57bde79146102a1578063fcc8f793146102cc576100c2565b806391f90157146101c9578063957bb1e0146101f4578063b7b0422d14610210576100c2565b80632a24f46c146100c75780632d8ed84a146100de5780633ccfd60b146101095780634423c5f1146101345780634b449cba14610173578063893d20e81461019e575b600080fd5b3480156100d357600080fd5b506100dc61030b565b005b3480156100ea57600080fd5b506100f3610471565b6040516101009190610e74565b60405180910390f35b34801561011557600080fd5b5061011e61047b565b60405161012b9190610e3e565b60405180910390f35b34801561014057600080fd5b5061015b60048036038101906101569190610c4c565b61059f565b60405161016a93929190610e8f565b60405180910390f35b34801561017f57600080fd5b506101886105f9565b6040516101959190610e74565b60405180910390f35b3480156101aa57600080fd5b506101b36105ff565b6040516101c09190610dd8565b60405180910390f35b3480156101d557600080fd5b506101de610628565b6040516101eb9190610dd8565b60405180910390f35b61020e60048036038101906102099190610c23565b61064e565b005b34801561021c57600080fd5b5061023760048036038101906102329190610c4c565b610962565b005b34801561024557600080fd5b5061024e6109a5565b60405161025b9190610e1c565b60405180910390f35b34801561027057600080fd5b5061028b60048036038101906102869190610bfa565b610a6e565b6040516102989190610e59565b60405180910390f35b3480156102ad57600080fd5b506102b6610b31565b6040516102c39190610e74565b60405180910390f35b3480156102d857600080fd5b506102f360048036038101906102ee9190610bfa565b610b37565b60405161030293929190610e8f565b60405180910390f35b600154421015610347576040517f44cee29000000000000000000000000000000000000000000000000000000000815260040160405180910390fd5b600260009054906101000a900460ff161561038e576040517f61cfdcf800000000000000000000000000000000000000000000000000000000815260040160405180910390fd5b6001600260006101000a81548160ff0219169083151502179055507fdaec4582d5d9595688c8c98545fdd1c696d41c6aeaeb636737e84ed2f5c00eda600260019054906101000a900473ffffffffffffffffffffffffffffffffffffffff166003546040516103fe929190610df3565b60405180910390a160008054906101000a900473ffffffffffffffffffffffffffffffffffffffff1673ffffffffffffffffffffffffffffffffffffffff166108fc6003549081150290604051600060405180830381858888f1935050505015801561046e573d6000803e3d6000fd5b50565b6000600154905090565b600080600660003373ffffffffffffffffffffffffffffffffffffffff1673ffffffffffffffffffffffffffffffffffffffff1681526020019081526020016000205490506000811115610596576000600660003373ffffffffffffffffffffffffffffffffffffffff1673ffffffffffffffffffffffffffffffffffffffff168152602001908152602001600020819055503373ffffffffffffffffffffffffffffffffffffffff166108fc829081150290604051600060405180830381858888f193505050506105955780600660003373ffffffffffffffffffffffffffffffffffffffff1673ffffffffffffffffffffffffffffffffffffffff16815260200190815260200160002081905550600091505061059c565b5b60019150505b90565b600481815481106105af57600080fd5b90600052602060002090600302016000915090508060000154908060010160009054906101000a900473ffffffffffffffffffffffffffffffffffffffff16908060020154905083565b60015481565b60008060009054906101000a900473ffffffffffffffffffffffffffffffffffffffff16905090565b600260019054906101000a900473ffffffffffffffffffffffffffffffffffffffff1681565b60015442111561068a576040517fd02e774d00000000000000000000000000000000000000000000000000000000815260040160405180910390fd5b60035434116106d2576003546040517f4e12c1bb0000000000000000000000000000000000000000000000000000000081526004016106c99190610e74565b60405180910390fd5b6000600354146107575760035460066000600260019054906101000a900473ffffffffffffffffffffffffffffffffffffffff1673ffffffffffffffffffffffffffffffffffffffff1673ffffffffffffffffffffffffffffffffffffffff168152602001908152602001600020600082825461074f9190610eff565b925050819055505b3460038190555033600260016101000a81548173ffffffffffffffffffffffffffffffffffffffff021916908373ffffffffffffffffffffffffffffffffffffffff160217905550600460405180606001604052803481526020013373ffffffffffffffffffffffffffffffffffffffff1681526020018381525090806001815401808255809150506001900390600052602060002090600302016000909190919091506000820151816000015560208201518160010160006101000a81548173ffffffffffffffffffffffffffffffffffffffff021916908373ffffffffffffffffffffffffffffffffffffffff16021790555060408201518160020155505060405180606001604052803481526020013373ffffffffffffffffffffffffffffffffffffffff16815260200182815250600560003373ffffffffffffffffffffffffffffffffffffffff1673ffffffffffffffffffffffffffffffffffffffff1681526020019081526020016000206000820151816000015560208201518160010160006101000a81548173ffffffffffffffffffffffffffffffffffffffff021916908373ffffffffffffffffffffffffffffffffffffffff160217905550604082015181600201559050507ff4757a49b326036464bec6fe419a4ae38c8a02ce3e68bf0809674f6aab8ad3003334604051610957929190610df3565b60405180910390a150565b806001819055507f1ccaffd8ec198b238a66d64dcdcf1359202a834d154f36a5a813fd86d0389c6e60015460405161099a9190610e74565b60405180910390a150565b60606004805480602002602001604051908101604052809291908181526020016000905b82821015610a655783829060005260206000209060030201604051806060016040529081600082015481526020016001820160009054906101000a900473ffffffffffffffffffffffffffffffffffffffff1673ffffffffffffffffffffffffffffffffffffffff1673ffffffffffffffffffffffffffffffffffffffff168152602001600282015481525050815260200190600101906109c9565b50505050905090565b610a76610b81565b600560008373ffffffffffffffffffffffffffffffffffffffff1673ffffffffffffffffffffffffffffffffffffffff168152602001908152602001600020604051806060016040529081600082015481526020016001820160009054906101000a900473ffffffffffffffffffffffffffffffffffffffff1673ffffffffffffffffffffffffffffffffffffffff1673ffffffffffffffffffffffffffffffffffffffff1681526020016002820154815250509050919050565b60035481565b60056020528060005260406000206000915090508060000154908060010160009054906101000a900473ffffffffffffffffffffffffffffffffffffffff16908060020154905083565b604051806060016040528060008152602001600073ffffffffffffffffffffffffffffffffffffffff168152602001600080191681525090565b600081359050610bca81610fd6565b92915050565b600081359050610bdf81610fed565b92915050565b600081359050610bf481611004565b92915050565b600060208284031215610c0c57600080fd5b6000610c1a84828501610bbb565b91505092915050565b600060208284031215610c3557600080fd5b6000610c4384828501610bd0565b91505092915050565b600060208284031215610c5e57600080fd5b6000610c6c84828501610be5565b91505092915050565b6000610c818383610d36565b60608301905092915050565b610c9681610f55565b82525050565b610ca581610f55565b82525050565b6000610cb682610ed6565b610cc08185610eee565b9350610ccb83610ec6565b8060005b83811015610cfc578151610ce38882610c75565b9750610cee83610ee1565b925050600181019050610ccf565b5085935050505092915050565b610d1281610f67565b82525050565b610d2181610f73565b82525050565b610d3081610f73565b82525050565b606082016000820151610d4c6000850182610dba565b506020820151610d5f6020850182610c8d565b506040820151610d726040850182610d18565b50505050565b606082016000820151610d8e6000850182610dba565b506020820151610da16020850182610c8d565b506040820151610db46040850182610d18565b50505050565b610dc381610f9d565b82525050565b610dd281610f9d565b82525050565b6000602082019050610ded6000830184610c9c565b92915050565b6000604082019050610e086000830185610c9c565b610e156020830184610dc9565b9392505050565b60006020820190508181036000830152610e368184610cab565b905092915050565b6000602082019050610e536000830184610d09565b92915050565b6000606082019050610e6e6000830184610d78565b92915050565b6000602082019050610e896000830184610dc9565b92915050565b6000606082019050610ea46000830186610dc9565b610eb16020830185610c9c565b610ebe6040830184610d27565b949350505050565b6000819050602082019050919050565b600081519050919050565b6000602082019050919050565b600082825260208201905092915050565b6000610f0a82610f9d565b9150610f1583610f9d565b9250827fffffffffffffffffffffffffffffffffffffffffffffffffffffffffffffffff03821115610f4a57610f49610fa7565b5b828201905092915050565b6000610f6082610f7d565b9050919050565b60008115159050919050565b6000819050919050565b600073ffffffffffffffffffffffffffffffffffffffff82169050919050565b6000819050919050565b7f4e487b7100000000000000000000000000000000000000000000000000000000600052601160045260246000fd5b610fdf81610f55565b8114610fea57600080fd5b50565b610ff681610f73565b811461100157600080fd5b50565b61100d81610f9d565b811461101857600080fd5b5056fea2646970667358221220d0ae0f9d22a5caea0161582dedf1adbde3db53124652fba0d2a5b6e555cdd43764736f6c63430008040033",
  "linkReferences": {},
  "deployedLinkReferences": {}
}