{
  "_format": "hh-sol-artifact-1",
  "contractName": "Ballot",
  "sourceName": "contracts/Ballot.sol",
  "abi": [
    {
      "inputs": [],
      "stateMutability": "nonpayable",
      "type": "constructor"
    },
    {
      "anonymous": false,
      "inputs": [
        {
          "indexed": false,
          "internalType": "bytes32",
          "name": "name",
          "type": "bytes32"
        }
      ],
      "name": "CandidateAdded",
      "type": "event"
    },
    {
      "anonymous": false,
      "inputs": [],
      "name": "DelegateDone",
      "type": "event"
    },
    {
      "anonymous": false,
      "inputs": [],
      "name": "VoteDone",
      "type": "event"
    },
    {
      "anonymous": false,
      "inputs": [
        {
          "indexed": false,
          "internalType": "bytes32",
          "name": "name",
          "type": "bytes32"
        }
      ],
      "name": "VoterAdded",
      "type": "event"
    },
    {
      "inputs": [
        {
          "internalType": "bytes32",
          "name": "name",
          "type": "bytes32"
        }
      ],
      "name": "addCandidate",
      "outputs": [],
      "stateMutability": "nonpayable",
      "type": "function"
    },
    {
      "inputs": [
        {
          "internalType": "address",
          "name": "to",
          "type": "address"
        }
      ],
      "name": "delegate",
      "outputs": [],
      "stateMutability": "nonpayable",
      "type": "function"
    },
    {
      "inputs": [],
      "name": "getCandidates",
      "outputs": [
        {
          "components": [
            {
              "internalType": "uint256",
              "name": "voteCount",
              "type": "uint256"
            },
            {
              "internalType": "bytes32",
              "name": "name",
              "type": "bytes32"
            }
          ],
          "internalType": "struct Ballot.Proposal[]",
          "name": "",
          "type": "tuple[]"
        }
      ],
      "stateMutability": "view",
      "type": "function"
    },
    {
      "inputs": [],
      "name": "getOwner",
      "outputs": [
        {
          "internalType": "address",
          "name": "",
          "type": "address"
        }
      ],
      "stateMutability": "view",
      "type": "function"
    },
    {
      "inputs": [
        {
          "internalType": "address",
          "name": "voter",
          "type": "address"
        }
      ],
      "name": "getVote",
      "outputs": [
        {
          "components": [
            {
              "internalType": "address",
              "name": "delegate",
              "type": "address"
            },
            {
              "internalType": "uint256",
              "name": "weight",
              "type": "uint256"
            },
            {
              "internalType": "bool",
              "name": "voted",
              "type": "bool"
            },
            {
              "internalType": "uint256",
              "name": "vote",
              "type": "uint256"
            },
            {
              "internalType": "address",
              "name": "addr",
              "type": "address"
            },
            {
              "internalType": "bytes32",
              "name": "name",
              "type": "bytes32"
            }
          ],
          "internalType": "struct Ballot.Voter",
          "name": "",
          "type": "tuple"
        }
      ],
      "stateMutability": "view",
      "type": "function"
    },
    {
      "inputs": [],
      "name": "getVoters",
      "outputs": [
        {
          "components": [
            {
              "internalType": "address",
              "name": "delegate",
              "type": "address"
            },
            {
              "internalType": "uint256",
              "name": "weight",
              "type": "uint256"
            },
            {
              "internalType": "bool",
              "name": "voted",
              "type": "bool"
            },
            {
              "internalType": "uint256",
              "name": "vote",
              "type": "uint256"
            },
            {
              "internalType": "address",
              "name": "addr",
              "type": "address"
            },
            {
              "internalType": "bytes32",
              "name": "name",
              "type": "bytes32"
            }
          ],
          "internalType": "struct Ballot.Voter[]",
          "name": "",
          "type": "tuple[]"
        }
      ],
      "stateMutability": "view",
      "type": "function"
    },
    {
      "inputs": [
        {
          "internalType": "address",
          "name": "voter",
          "type": "address"
        },
        {
          "internalType": "bytes32",
          "name": "name",
          "type": "bytes32"
        }
      ],
      "name": "giveRightToVote",
      "outputs": [],
      "stateMutability": "nonpayable",
      "type": "function"
    },
    {
      "inputs": [
        {
          "internalType": "uint256",
          "name": "",
          "type": "uint256"
        }
      ],
      "name": "proposals",
      "outputs": [
        {
          "internalType": "uint256",
          "name": "voteCount",
          "type": "uint256"
        },
        {
          "internalType": "bytes32",
          "name": "name",
          "type": "bytes32"
        }
      ],
      "stateMutability": "view",
      "type": "function"
    },
    {
      "inputs": [
        {
          "internalType": "uint256",
          "name": "proposal",
          "type": "uint256"
        }
      ],
      "name": "vote",
      "outputs": [],
      "stateMutability": "nonpayable",
      "type": "function"
    },
    {
      "inputs": [
        {
          "internalType": "uint256",
          "name": "",
          "type": "uint256"
        }
      ],
      "name": "voterList",
      "outputs": [
        {
          "internalType": "address",
          "name": "delegate",
          "type": "address"
        },
        {
          "internalType": "uint256",
          "name": "weight",
          "type": "uint256"
        },
        {
          "internalType": "bool",
          "name": "voted",
          "type": "bool"
        },
        {
          "internalType": "uint256",
          "name": "vote",
          "type": "uint256"
        },
        {
          "internalType": "address",
          "name": "addr",
          "type": "address"
        },
        {
          "internalType": "bytes32",
          "name": "name",
          "type": "bytes32"
        }
      ],
      "stateMutability": "view",
      "type": "function"
    },
    {
      "inputs": [
        {
          "internalType": "address",
          "name": "",
          "type": "address"
        }
      ],
      "name": "voters",
      "outputs": [
        {
          "internalType": "address",
          "name": "delegate",
          "type": "address"
        },
        {
          "internalType": "uint256",
          "name": "weight",
          "type": "uint256"
        },
        {
          "internalType": "bool",
          "name": "voted",
          "type": "bool"
        },
        {
          "internalType": "uint256",
          "name": "vote",
          "type": "uint256"
        },
        {
          "internalType": "address",
          "name": "addr",
          "type": "address"
        },
        {
          "internalType": "bytes32",
          "name": "name",
          "type": "bytes32"
        }
      ],
      "stateMutability": "view",
      "type": "function"
    },
    {
      "inputs": [],
      "name": "winnerName",
      "outputs": [
        {
          "internalType": "bytes32",
          "name": "name",
          "type": "bytes32"
        }
      ],
      "stateMutability": "view",
      "type": "function"
    },
    {
      "inputs": [],
      "name": "winningProposal",
      "outputs": [
        {
          "internalType": "uint256",
          "name": "winningProposalId",
          "type": "uint256"
        }
      ],
      "stateMutability": "view",
      "type": "function"
    }
  ],
  "bytecode": "0x608060405234801561001057600080fd5b50336000806101000a81548173ffffffffffffffffffffffffffffffffffffffff021916908373ffffffffffffffffffffffffffffffffffffffff16021790555060018060008060009054906101000a900473ffffffffffffffffffffffffffffffffffffffff1673ffffffffffffffffffffffffffffffffffffffff1673ffffffffffffffffffffffffffffffffffffffff16815260200190815260200160002060010181905550611d78806100c86000396000f3fe608060405234801561001057600080fd5b50600436106100cf5760003560e01c8063609ff1bd1161008c578063a3ec138d11610066578063a3ec138d14610218578063cdd722531461024d578063e2ba53f01461026b578063ebf9c25e14610289576100cf565b8063609ff1bd146101ac578063893d20e8146101ca5780638d337b81146101e8576100cf565b80630121b93f146100d4578063013cf08b146100f057806306a49fce14610121578063230d6ed81461013f57806350e2e8af1461015b5780635c19a95c14610190575b600080fd5b6100ee60048036038101906100e991906113c2565b6102a5565b005b61010a600480360381019061010591906113c2565b61043e565b60405161011892919061199d565b60405180910390f35b610129610472565b6040516101369190611808565b60405180910390f35b61015960048036038101906101549190611399565b6104e5565b005b610175600480360381019061017091906113c2565b610576565b604051610187969594939291906117a7565b60405180910390f35b6101aa60048036038101906101a59190611334565b61060f565b005b6101b4610a45565b6040516101c19190611982565b60405180910390f35b6101d2610b19565b6040516101df919061178c565b60405180910390f35b61020260048036038101906101fd9190611334565b610b42565b60405161020f9190611967565b60405180910390f35b610232600480360381019061022d9190611334565b610c80565b604051610244969594939291906117a7565b60405180910390f35b610255610d09565b604051610262919061182a565b60405180910390f35b610273610e4d565b604051610280919061184c565b60405180910390f35b6102a3600480360381019061029e919061135d565b610ea7565b005b6000600160003373ffffffffffffffffffffffffffffffffffffffff1673ffffffffffffffffffffffffffffffffffffffff16815260200190815260200160002090508060020160009054906101000a900460ff161561033a576040517f08c379a000000000000000000000000000000000000000000000000000000000815260040161033190611947565b60405180910390fd5b600181600101541015610382576040517f08c379a000000000000000000000000000000000000000000000000000000000815260040161037990611887565b60405180910390fd5b8060010154600283815481106103c1577f4e487b7100000000000000000000000000000000000000000000000000000000600052603260045260246000fd5b906000526020600020906002020160000160008282546103e19190611a49565b9250508190555060018160020160006101000a81548160ff0219169083151502179055508181600301819055507f0f4fc8a136876f798007658a910a8ab4437f6da16f6ca65274307c5a0f5319f860405160405180910390a15050565b6002818154811061044e57600080fd5b90600052602060002090600202016000915090508060000154908060010154905082565b60606002805480602002602001604051908101604052809291908181526020016000905b828210156104dc57838290600052602060002090600202016040518060400160405290816000820154815260200160018201548152505081526020019060010190610496565b50505050905090565b6002604051806040016040528060008152602001838152509080600181540180825580915050600190039060005260206000209060020201600090919091909150600082015181600001556020820151816001015550507f1ca6455dcb14c395e267f0f1f437ef528cbd7259d0ac82309627fcac2e9d801c8160405161056b919061184c565b60405180910390a150565b6003818154811061058657600080fd5b90600052602060002090600602016000915090508060000160009054906101000a900473ffffffffffffffffffffffffffffffffffffffff16908060010154908060020160009054906101000a900460ff16908060030154908060040160009054906101000a900473ffffffffffffffffffffffffffffffffffffffff16908060050154905086565b6000600160003373ffffffffffffffffffffffffffffffffffffffff1673ffffffffffffffffffffffffffffffffffffffff16815260200190815260200160002090508060020160009054906101000a900460ff16156106a4576040517f08c379a000000000000000000000000000000000000000000000000000000000815260040161069b90611867565b60405180910390fd5b8173ffffffffffffffffffffffffffffffffffffffff163373ffffffffffffffffffffffffffffffffffffffff161415610713576040517f08c379a000000000000000000000000000000000000000000000000000000000815260040161070a906118c7565b60405180910390fd5b5b600073ffffffffffffffffffffffffffffffffffffffff16600160008473ffffffffffffffffffffffffffffffffffffffff1673ffffffffffffffffffffffffffffffffffffffff16815260200190815260200160002060000160009054906101000a900473ffffffffffffffffffffffffffffffffffffffff1673ffffffffffffffffffffffffffffffffffffffff161461088357600160008373ffffffffffffffffffffffffffffffffffffffff1673ffffffffffffffffffffffffffffffffffffffff16815260200190815260200160002060000160009054906101000a900473ffffffffffffffffffffffffffffffffffffffff1691503373ffffffffffffffffffffffffffffffffffffffff168273ffffffffffffffffffffffffffffffffffffffff16141561087e576040517f08c379a000000000000000000000000000000000000000000000000000000000815260040161087590611927565b60405180910390fd5b610714565b6000600160008473ffffffffffffffffffffffffffffffffffffffff1673ffffffffffffffffffffffffffffffffffffffff168152602001908152602001600020905060018160010154101561090e576040517f08c379a000000000000000000000000000000000000000000000000000000000815260040161090590611907565b60405180910390fd5b60018260020160006101000a81548160ff021916908315150217905550828260000160006101000a81548173ffffffffffffffffffffffffffffffffffffffff021916908373ffffffffffffffffffffffffffffffffffffffff1602179055508060020160009054906101000a900460ff16156109f457816001015460028260030154815481106109c8577f4e487b7100000000000000000000000000000000000000000000000000000000600052603260045260246000fd5b906000526020600020906002020160000160008282546109e89190611a49565b92505081905550610a14565b8160010154816001016000828254610a0c9190611a49565b925050819055505b7fa8c1a016a1164b8b9b84fe11ebe0d97c0922dbb8b240817edb7575c73daec80160405160405180910390a1505050565b6000806000905060005b600280549050811015610b14578160028281548110610a97577f4e487b7100000000000000000000000000000000000000000000000000000000600052603260045260246000fd5b9060005260206000209060020201600001541115610b015760028181548110610ae9577f4e487b7100000000000000000000000000000000000000000000000000000000600052603260045260246000fd5b90600052602060002090600202016000015491508092505b8080610b0c90611af1565b915050610a4f565b505090565b60008060009054906101000a900473ffffffffffffffffffffffffffffffffffffffff16905090565b610b4a61128e565b600160008373ffffffffffffffffffffffffffffffffffffffff1673ffffffffffffffffffffffffffffffffffffffff1681526020019081526020016000206040518060c00160405290816000820160009054906101000a900473ffffffffffffffffffffffffffffffffffffffff1673ffffffffffffffffffffffffffffffffffffffff1673ffffffffffffffffffffffffffffffffffffffff168152602001600182015481526020016002820160009054906101000a900460ff16151515158152602001600382015481526020016004820160009054906101000a900473ffffffffffffffffffffffffffffffffffffffff1673ffffffffffffffffffffffffffffffffffffffff1673ffffffffffffffffffffffffffffffffffffffff1681526020016005820154815250509050919050565b60016020528060005260406000206000915090508060000160009054906101000a900473ffffffffffffffffffffffffffffffffffffffff16908060010154908060020160009054906101000a900460ff16908060030154908060040160009054906101000a900473ffffffffffffffffffffffffffffffffffffffff16908060050154905086565b60606003805480602002602001604051908101604052809291908181526020016000905b82821015610e4457838290600052602060002090600602016040518060c00160405290816000820160009054906101000a900473ffffffffffffffffffffffffffffffffffffffff1673ffffffffffffffffffffffffffffffffffffffff1673ffffffffffffffffffffffffffffffffffffffff168152602001600182015481526020016002820160009054906101000a900460ff16151515158152602001600382015481526020016004820160009054906101000a900473ffffffffffffffffffffffffffffffffffffffff1673ffffffffffffffffffffffffffffffffffffffff1673ffffffffffffffffffffffffffffffffffffffff16815260200160058201548152505081526020019060010190610d2d565b50505050905090565b60006002610e59610a45565b81548110610e90577f4e487b7100000000000000000000000000000000000000000000000000000000600052603260045260246000fd5b906000526020600020906002020160010154905090565b6000600160008473ffffffffffffffffffffffffffffffffffffffff1673ffffffffffffffffffffffffffffffffffffffff16815260200190815260200160002060010154141561128a5760008054906101000a900473ffffffffffffffffffffffffffffffffffffffff1673ffffffffffffffffffffffffffffffffffffffff163373ffffffffffffffffffffffffffffffffffffffff1614610f80576040517f08c379a0000000000000000000000000000000000000000000000000000000008152600401610f77906118a7565b60405180910390fd5b600160008373ffffffffffffffffffffffffffffffffffffffff1673ffffffffffffffffffffffffffffffffffffffff16815260200190815260200160002060020160009054906101000a900460ff1615611010576040517f08c379a0000000000000000000000000000000000000000000000000000000008152600401611007906118e7565b60405180910390fd5b60018060008473ffffffffffffffffffffffffffffffffffffffff1673ffffffffffffffffffffffffffffffffffffffff1681526020019081526020016000206001018190555080600160008473ffffffffffffffffffffffffffffffffffffffff1673ffffffffffffffffffffffffffffffffffffffff1681526020019081526020016000206005018190555060036040518060c00160405280600073ffffffffffffffffffffffffffffffffffffffff1681526020016001815260200160001515815260200161010081526020018473ffffffffffffffffffffffffffffffffffffffff16815260200183815250908060018154018082558091505060019003906000526020600020906006020160009091909190915060008201518160000160006101000a81548173ffffffffffffffffffffffffffffffffffffffff021916908373ffffffffffffffffffffffffffffffffffffffff1602179055506020820151816001015560408201518160020160006101000a81548160ff0219169083151502179055506060820151816003015560808201518160040160006101000a81548173ffffffffffffffffffffffffffffffffffffffff021916908373ffffffffffffffffffffffffffffffffffffffff16021790555060a0820151816005015550506000600160008473ffffffffffffffffffffffffffffffffffffffff1673ffffffffffffffffffffffffffffffffffffffff16815260200190815260200160002060020160006101000a81548160ff0219169083151502179055507f67e2076826609ca535a6b72f1e27564370a60c60cc460bdc38b1763816b0076881604051611281919061184c565b60405180910390a15b5050565b6040518060c00160405280600073ffffffffffffffffffffffffffffffffffffffff1681526020016000815260200160001515815260200160008152602001600073ffffffffffffffffffffffffffffffffffffffff168152602001600080191681525090565b60008135905061130481611cfd565b92915050565b60008135905061131981611d14565b92915050565b60008135905061132e81611d2b565b92915050565b60006020828403121561134657600080fd5b6000611354848285016112f5565b91505092915050565b6000806040838503121561137057600080fd5b600061137e858286016112f5565b925050602061138f8582860161130a565b9150509250929050565b6000602082840312156113ab57600080fd5b60006113b98482850161130a565b91505092915050565b6000602082840312156113d457600080fd5b60006113e28482850161131f565b91505092915050565b60006113f78383611649565b60408301905092915050565b600061140f8383611678565b60c08301905092915050565b61142481611a9f565b82525050565b61143381611a9f565b82525050565b6000611444826119e6565b61144e8185611a16565b9350611459836119c6565b8060005b8381101561148a57815161147188826113eb565b975061147c836119fc565b92505060018101905061145d565b5085935050505092915050565b60006114a2826119f1565b6114ac8185611a27565b93506114b7836119d6565b8060005b838110156114e85781516114cf8882611403565b97506114da83611a09565b9250506001810190506114bb565b5085935050505092915050565b6114fe81611ab1565b82525050565b61150d81611ab1565b82525050565b61151c81611abd565b82525050565b61152b81611abd565b82525050565b600061153e601783611a38565b915061154982611b69565b602082019050919050565b6000611561601a83611a38565b915061156c82611b92565b602082019050919050565b6000611584602483611a38565b915061158f82611bbb565b604082019050919050565b60006115a7601f83611a38565b91506115b282611c0a565b602082019050919050565b60006115ca601b83611a38565b91506115d582611c33565b602082019050919050565b60006115ed602b83611a38565b91506115f882611c5c565b604082019050919050565b6000611610601483611a38565b915061161b82611cab565b602082019050919050565b6000611633601883611a38565b915061163e82611cd4565b602082019050919050565b60408201600082015161165f600085018261176e565b5060208201516116726020850182611513565b50505050565b60c08201600082015161168e600085018261141b565b5060208201516116a1602085018261176e565b5060408201516116b460408501826114f5565b5060608201516116c7606085018261176e565b5060808201516116da608085018261141b565b5060a08201516116ed60a0850182611513565b50505050565b60c082016000820151611709600085018261141b565b50602082015161171c602085018261176e565b50604082015161172f60408501826114f5565b506060820151611742606085018261176e565b506080820151611755608085018261141b565b5060a082015161176860a0850182611513565b50505050565b61177781611ae7565b82525050565b61178681611ae7565b82525050565b60006020820190506117a1600083018461142a565b92915050565b600060c0820190506117bc600083018961142a565b6117c9602083018861177d565b6117d66040830187611504565b6117e3606083018661177d565b6117f0608083018561142a565b6117fd60a0830184611522565b979650505050505050565b600060208201905081810360008301526118228184611439565b905092915050565b600060208201905081810360008301526118448184611497565b905092915050565b60006020820190506118616000830184611522565b92915050565b6000602082019050818103600083015261188081611531565b9050919050565b600060208201905081810360008301526118a081611554565b9050919050565b600060208201905081810360008301526118c081611577565b9050919050565b600060208201905081810360008301526118e08161159a565b9050919050565b60006020820190508181036000830152611900816115bd565b9050919050565b60006020820190508181036000830152611920816115e0565b9050919050565b6000602082019050818103600083015261194081611603565b9050919050565b6000602082019050818103600083015261196081611626565b9050919050565b600060c08201905061197c60008301846116f3565b92915050565b6000602082019050611997600083018461177d565b92915050565b60006040820190506119b2600083018561177d565b6119bf6020830184611522565b9392505050565b6000819050602082019050919050565b6000819050602082019050919050565b600081519050919050565b600081519050919050565b6000602082019050919050565b6000602082019050919050565b600082825260208201905092915050565b600082825260208201905092915050565b600082825260208201905092915050565b6000611a5482611ae7565b9150611a5f83611ae7565b9250827fffffffffffffffffffffffffffffffffffffffffffffffffffffffffffffffff03821115611a9457611a93611b3a565b5b828201905092915050565b6000611aaa82611ac7565b9050919050565b60008115159050919050565b6000819050919050565b600073ffffffffffffffffffffffffffffffffffffffff82169050919050565b6000819050919050565b6000611afc82611ae7565b91507fffffffffffffffffffffffffffffffffffffffffffffffffffffffffffffffff821415611b2f57611b2e611b3a565b5b600182019050919050565b7f4e487b7100000000000000000000000000000000000000000000000000000000600052601160045260246000fd5b7f596f75206861766520616c726561647920766f7465642e000000000000000000600082015250565b7f566f74657220686173206e6f20726967687420746f20766f7465000000000000600082015250565b7f4f6e6c7920656663632063616e20676976652074686520726967687420746f2060008201527f766f746500000000000000000000000000000000000000000000000000000000602082015250565b7f53656c662d64656c65676174696f6e206973206e6f7420616c6c6f7765642e00600082015250565b7f5468697320757365722068617320616c726561647920766f7465640000000000600082015250565b7f43616e6e6f742064656c656761746520746f206164647265737320746861742060008201527f63616e6e6f7420766f7465000000000000000000000000000000000000000000602082015250565b7f4c6f6f70206973206e6f7420616c6c6f7765642e000000000000000000000000600082015250565b7f566f7465722068617320616c726561647920766f7465642e0000000000000000600082015250565b611d0681611a9f565b8114611d1157600080fd5b50565b611d1d81611abd565b8114611d2857600080fd5b50565b611d3481611ae7565b8114611d3f57600080fd5b5056fea2646970667358221220d1e856aa9ddafbeac20d18e46ec4ea9aaa9180f5cb3016d00a6808d408717f4f64736f6c63430008040033",
  "linkReferences": {},
  "deployedLinkReferences": {}
}